{
  "_format": "hh-sol-artifact-1",
  "contractName": "Ownable",
  "sourceName": "contracts/coffeecore/Ownable.sol",
  "abi": [
    {
      "inputs": [],
      "stateMutability": "nonpayable",
      "type": "constructor"
    },
    {
      "anonymous": false,
      "inputs": [
        {
          "indexed": true,
          "internalType": "address",
          "name": "account",
          "type": "address"
        }
      ],
      "name": "ConsumerAdded",
      "type": "event"
    },
    {
      "anonymous": false,
      "inputs": [
        {
          "indexed": true,
          "internalType": "address",
          "name": "account",
          "type": "address"
        }
      ],
      "name": "ConsumerRemoved",
      "type": "event"
    },
    {
      "anonymous": false,
      "inputs": [
        {
          "indexed": true,
          "internalType": "address",
          "name": "account",
          "type": "address"
        }
      ],
      "name": "DistributorAdded",
      "type": "event"
    },
    {
      "anonymous": false,
      "inputs": [
        {
          "indexed": true,
          "internalType": "address",
          "name": "account",
          "type": "address"
        }
      ],
      "name": "DistributorRemoved",
      "type": "event"
    },
    {
      "anonymous": false,
      "inputs": [
        {
          "indexed": true,
          "internalType": "address",
          "name": "account",
          "type": "address"
        }
      ],
      "name": "FarmerAdded",
      "type": "event"
    },
    {
      "anonymous": false,
      "inputs": [
        {
          "indexed": true,
          "internalType": "address",
          "name": "account",
          "type": "address"
        }
      ],
      "name": "FarmerRemoved",
      "type": "event"
    },
    {
      "anonymous": false,
      "inputs": [
        {
          "indexed": true,
          "internalType": "uint256",
          "name": "upc",
          "type": "uint256"
        }
      ],
      "name": "ForSale",
      "type": "event"
    },
    {
      "anonymous": false,
      "inputs": [
        {
          "indexed": true,
          "internalType": "uint256",
          "name": "upc",
          "type": "uint256"
        }
      ],
      "name": "Harvested",
      "type": "event"
    },
    {
      "anonymous": false,
      "inputs": [
        {
          "indexed": true,
          "internalType": "address",
          "name": "previousOwner",
          "type": "address"
        },
        {
          "indexed": true,
          "internalType": "address",
          "name": "newOwner",
          "type": "address"
        }
      ],
      "name": "OwnershipTransferred",
      "type": "event"
    },
    {
      "anonymous": false,
      "inputs": [
        {
          "indexed": true,
          "internalType": "uint256",
          "name": "upc",
          "type": "uint256"
        }
      ],
      "name": "Packed",
      "type": "event"
    },
    {
      "anonymous": false,
      "inputs": [
        {
          "indexed": true,
          "internalType": "uint256",
          "name": "upc",
          "type": "uint256"
        }
      ],
      "name": "Processed",
      "type": "event"
    },
    {
      "anonymous": false,
      "inputs": [
        {
          "indexed": true,
          "internalType": "uint256",
          "name": "upc",
          "type": "uint256"
        }
      ],
      "name": "Purchased",
      "type": "event"
    },
    {
      "anonymous": false,
      "inputs": [
        {
          "indexed": true,
          "internalType": "uint256",
          "name": "upc",
          "type": "uint256"
        }
      ],
      "name": "Received",
      "type": "event"
    },
    {
      "anonymous": false,
      "inputs": [
        {
          "indexed": true,
          "internalType": "address",
          "name": "account",
          "type": "address"
        }
      ],
      "name": "RetailerAdded",
      "type": "event"
    },
    {
      "anonymous": false,
      "inputs": [
        {
          "indexed": true,
          "internalType": "address",
          "name": "account",
          "type": "address"
        }
      ],
      "name": "RetailerRemoved",
      "type": "event"
    },
    {
      "anonymous": false,
      "inputs": [
        {
          "indexed": true,
          "internalType": "uint256",
          "name": "upc",
          "type": "uint256"
        }
      ],
      "name": "Shipped",
      "type": "event"
    },
    {
      "anonymous": false,
      "inputs": [
        {
          "indexed": true,
          "internalType": "uint256",
          "name": "upc",
          "type": "uint256"
        }
      ],
      "name": "Sold",
      "type": "event"
    },
    {
      "inputs": [
        {
          "internalType": "address",
          "name": "account",
          "type": "address"
        }
      ],
      "name": "addConsumer",
      "outputs": [],
      "stateMutability": "nonpayable",
      "type": "function"
    },
    {
      "inputs": [
        {
          "internalType": "address",
          "name": "account",
          "type": "address"
        }
      ],
      "name": "addDistributor",
      "outputs": [],
      "stateMutability": "nonpayable",
      "type": "function"
    },
    {
      "inputs": [
        {
          "internalType": "address",
          "name": "account",
          "type": "address"
        }
      ],
      "name": "addFarmer",
      "outputs": [],
      "stateMutability": "nonpayable",
      "type": "function"
    },
    {
      "inputs": [
        {
          "internalType": "address",
          "name": "account",
          "type": "address"
        }
      ],
      "name": "addRetailer",
      "outputs": [],
      "stateMutability": "nonpayable",
      "type": "function"
    },
    {
      "inputs": [
        {
          "internalType": "uint256",
          "name": "_upc",
          "type": "uint256"
        }
      ],
      "name": "buyItem",
      "outputs": [],
      "stateMutability": "payable",
      "type": "function"
    },
    {
      "inputs": [
        {
          "internalType": "uint256",
          "name": "_upc",
          "type": "uint256"
        }
      ],
      "name": "fetchItemBufferOne",
      "outputs": [
        {
          "internalType": "uint256",
          "name": "itemSKU",
          "type": "uint256"
        },
        {
          "internalType": "uint256",
          "name": "itemUPC",
          "type": "uint256"
        },
        {
          "internalType": "address",
          "name": "ownerID",
          "type": "address"
        },
        {
          "internalType": "address",
          "name": "originFarmerID",
          "type": "address"
        },
        {
          "internalType": "string",
          "name": "originFarmName",
          "type": "string"
        },
        {
          "internalType": "string",
          "name": "originFarmInformation",
          "type": "string"
        },
        {
          "internalType": "string",
          "name": "originFarmLatitude",
          "type": "string"
        },
        {
          "internalType": "string",
          "name": "originFarmLongitude",
          "type": "string"
        }
      ],
      "stateMutability": "view",
      "type": "function"
    },
    {
      "inputs": [
        {
          "internalType": "uint256",
          "name": "_upc",
          "type": "uint256"
        }
      ],
      "name": "fetchItemBufferTwo",
      "outputs": [
        {
          "internalType": "uint256",
          "name": "itemSKU",
          "type": "uint256"
        },
        {
          "internalType": "uint256",
          "name": "itemUPC",
          "type": "uint256"
        },
        {
          "internalType": "uint256",
          "name": "productID",
          "type": "uint256"
        },
        {
          "internalType": "string",
          "name": "productNotes",
          "type": "string"
        },
        {
          "internalType": "uint256",
          "name": "productPrice",
          "type": "uint256"
        },
        {
          "internalType": "enum SupplyChain.State",
          "name": "itemState",
          "type": "uint8"
        },
        {
          "internalType": "address",
          "name": "distributorID",
          "type": "address"
        },
        {
          "internalType": "address",
          "name": "retailerID",
          "type": "address"
        },
        {
          "internalType": "address",
          "name": "consumerID",
          "type": "address"
        }
      ],
      "stateMutability": "view",
      "type": "function"
    },
    {
      "inputs": [
        {
          "internalType": "uint256",
          "name": "_upc",
          "type": "uint256"
        }
      ],
      "name": "fetchItemHistory",
      "outputs": [
        {
          "internalType": "string[]",
          "name": "",
          "type": "string[]"
        }
      ],
      "stateMutability": "view",
      "type": "function"
    },
    {
      "inputs": [
        {
          "internalType": "uint256",
          "name": "_upc",
          "type": "uint256"
        }
      ],
      "name": "fetchOriginData",
      "outputs": [
        {
          "components": [
            {
              "internalType": "address",
              "name": "originFarmerID",
              "type": "address"
            },
            {
              "internalType": "string",
              "name": "originFarmName",
              "type": "string"
            },
            {
              "internalType": "string",
              "name": "originFarmInformation",
              "type": "string"
            },
            {
              "internalType": "string",
              "name": "originFarmLatitude",
              "type": "string"
            },
            {
              "internalType": "string",
              "name": "originFarmLongitude",
              "type": "string"
            }
          ],
          "internalType": "struct SupplyChain.OriginData",
          "name": "",
          "type": "tuple"
        }
      ],
      "stateMutability": "view",
      "type": "function"
    },
    {
      "inputs": [
        {
          "internalType": "uint256",
          "name": "_upc",
          "type": "uint256"
        }
      ],
      "name": "fetchProductData",
      "outputs": [
        {
          "components": [
            {
              "internalType": "uint256",
              "name": "productID",
              "type": "uint256"
            },
            {
              "internalType": "string",
              "name": "productNotes",
              "type": "string"
            },
            {
              "internalType": "uint256",
              "name": "productPrice",
              "type": "uint256"
            }
          ],
          "internalType": "struct SupplyChain.ProductData",
          "name": "",
          "type": "tuple"
        }
      ],
      "stateMutability": "view",
      "type": "function"
    },
    {
      "inputs": [
        {
          "components": [
            {
              "internalType": "uint256",
              "name": "upc",
              "type": "uint256"
            },
            {
              "internalType": "string",
              "name": "originFarmName",
              "type": "string"
            },
            {
              "internalType": "string",
              "name": "originFarmInformation",
              "type": "string"
            },
            {
              "internalType": "string",
              "name": "originFarmLatitude",
              "type": "string"
            },
            {
              "internalType": "string",
              "name": "originFarmLongitude",
              "type": "string"
            },
            {
              "internalType": "string",
              "name": "productNotes",
              "type": "string"
            }
          ],
          "internalType": "struct SupplyChain.HarvestData",
          "name": "data",
          "type": "tuple"
        }
      ],
      "name": "harvestItem",
      "outputs": [],
      "stateMutability": "nonpayable",
      "type": "function"
    },
    {
      "inputs": [
        {
          "internalType": "address",
          "name": "account",
          "type": "address"
        }
      ],
      "name": "isConsumer",
      "outputs": [
        {
          "internalType": "bool",
          "name": "",
          "type": "bool"
        }
      ],
      "stateMutability": "view",
      "type": "function"
    },
    {
      "inputs": [
        {
          "internalType": "address",
          "name": "account",
          "type": "address"
        }
      ],
      "name": "isDistributor",
      "outputs": [
        {
          "internalType": "bool",
          "name": "",
          "type": "bool"
        }
      ],
      "stateMutability": "view",
      "type": "function"
    },
    {
      "inputs": [
        {
          "internalType": "address",
          "name": "account",
          "type": "address"
        }
      ],
      "name": "isFarmer",
      "outputs": [
        {
          "internalType": "bool",
          "name": "",
          "type": "bool"
        }
      ],
      "stateMutability": "view",
      "type": "function"
    },
    {
      "inputs": [],
      "name": "isOwner",
      "outputs": [
        {
          "internalType": "bool",
          "name": "",
          "type": "bool"
        }
      ],
      "stateMutability": "view",
      "type": "function"
    },
    {
      "inputs": [
        {
          "internalType": "address",
          "name": "account",
          "type": "address"
        }
      ],
      "name": "isRetailer",
      "outputs": [
        {
          "internalType": "bool",
          "name": "",
          "type": "bool"
        }
      ],
      "stateMutability": "view",
      "type": "function"
    },
    {
      "inputs": [],
      "name": "isStopped",
      "outputs": [
        {
          "internalType": "bool",
          "name": "",
          "type": "bool"
        }
      ],
      "stateMutability": "view",
      "type": "function"
    },
    {
      "inputs": [
        {
          "internalType": "uint256",
          "name": "",
          "type": "uint256"
        }
      ],
      "name": "items",
      "outputs": [
        {
          "internalType": "uint256",
          "name": "sku",
          "type": "uint256"
        },
        {
          "internalType": "uint256",
          "name": "upc",
          "type": "uint256"
        },
        {
          "internalType": "address",
          "name": "ownerID",
          "type": "address"
        },
        {
          "internalType": "enum SupplyChain.State",
          "name": "itemState",
          "type": "uint8"
        },
        {
          "internalType": "address",
          "name": "distributorID",
          "type": "address"
        },
        {
          "internalType": "address",
          "name": "retailerID",
          "type": "address"
        },
        {
          "internalType": "address",
          "name": "consumerID",
          "type": "address"
        }
      ],
      "stateMutability": "view",
      "type": "function"
    },
    {
      "inputs": [
        {
          "internalType": "uint256",
          "name": "",
          "type": "uint256"
        },
        {
          "internalType": "uint256",
          "name": "",
          "type": "uint256"
        }
      ],
      "name": "itemsHistory",
      "outputs": [
        {
          "internalType": "string",
          "name": "",
          "type": "string"
        }
      ],
      "stateMutability": "view",
      "type": "function"
    },
    {
      "inputs": [
        {
          "internalType": "uint256",
          "name": "",
          "type": "uint256"
        }
      ],
      "name": "originData",
      "outputs": [
        {
          "internalType": "address",
          "name": "originFarmerID",
          "type": "address"
        },
        {
          "internalType": "string",
          "name": "originFarmName",
          "type": "string"
        },
        {
          "internalType": "string",
          "name": "originFarmInformation",
          "type": "string"
        },
        {
          "internalType": "string",
          "name": "originFarmLatitude",
          "type": "string"
        },
        {
          "internalType": "string",
          "name": "originFarmLongitude",
          "type": "string"
        }
      ],
      "stateMutability": "view",
      "type": "function"
    },
    {
      "inputs": [],
      "name": "owner",
      "outputs": [
        {
          "internalType": "address",
          "name": "",
          "type": "address"
        }
      ],
      "stateMutability": "view",
      "type": "function"
    },
    {
      "inputs": [
        {
          "internalType": "uint256",
          "name": "_upc",
          "type": "uint256"
        }
      ],
      "name": "packItem",
      "outputs": [],
      "stateMutability": "nonpayable",
      "type": "function"
    },
    {
      "inputs": [
        {
          "internalType": "uint256",
          "name": "_upc",
          "type": "uint256"
        }
      ],
      "name": "processItem",
      "outputs": [],
      "stateMutability": "nonpayable",
      "type": "function"
    },
    {
      "inputs": [
        {
          "internalType": "uint256",
          "name": "",
          "type": "uint256"
        }
      ],
      "name": "productData",
      "outputs": [
        {
          "internalType": "uint256",
          "name": "productID",
          "type": "uint256"
        },
        {
          "internalType": "string",
          "name": "productNotes",
          "type": "string"
        },
        {
          "internalType": "uint256",
          "name": "productPrice",
          "type": "uint256"
        }
      ],
      "stateMutability": "view",
      "type": "function"
    },
    {
      "inputs": [
        {
          "internalType": "uint256",
          "name": "_upc",
          "type": "uint256"
        }
      ],
      "name": "purchaseItem",
      "outputs": [],
      "stateMutability": "payable",
      "type": "function"
    },
    {
      "inputs": [
        {
          "internalType": "uint256",
          "name": "_upc",
          "type": "uint256"
        }
      ],
      "name": "receiveItem",
      "outputs": [],
      "stateMutability": "payable",
      "type": "function"
    },
    {
      "inputs": [],
      "name": "renounceConsumer",
      "outputs": [],
      "stateMutability": "nonpayable",
      "type": "function"
    },
    {
      "inputs": [],
      "name": "renounceDistributor",
      "outputs": [],
      "stateMutability": "nonpayable",
      "type": "function"
    },
    {
      "inputs": [],
      "name": "renounceFarmer",
      "outputs": [],
      "stateMutability": "nonpayable",
      "type": "function"
    },
    {
      "inputs": [],
      "name": "renounceOwnership",
      "outputs": [],
      "stateMutability": "nonpayable",
      "type": "function"
    },
    {
      "inputs": [],
      "name": "renounceRetailer",
      "outputs": [],
      "stateMutability": "nonpayable",
      "type": "function"
    },
    {
      "inputs": [
        {
          "internalType": "uint256",
          "name": "_upc",
          "type": "uint256"
        },
        {
          "internalType": "uint256",
          "name": "_price",
          "type": "uint256"
        }
      ],
      "name": "sellItem",
      "outputs": [],
      "stateMutability": "nonpayable",
      "type": "function"
    },
    {
      "inputs": [
        {
          "internalType": "uint256",
          "name": "_upc",
          "type": "uint256"
        }
      ],
      "name": "shipItem",
      "outputs": [],
      "stateMutability": "nonpayable",
      "type": "function"
    },
    {
      "inputs": [],
      "name": "sku",
      "outputs": [
        {
          "internalType": "uint256",
          "name": "",
          "type": "uint256"
        }
      ],
      "stateMutability": "view",
      "type": "function"
    },
    {
      "inputs": [],
      "name": "toggleContractActive",
      "outputs": [],
      "stateMutability": "nonpayable",
      "type": "function"
    },
    {
      "inputs": [
        {
          "internalType": "address",
          "name": "newOwner",
          "type": "address"
        }
      ],
      "name": "transferOwnership",
      "outputs": [],
      "stateMutability": "nonpayable",
      "type": "function"
    },
    {
      "inputs": [],
      "name": "upc",
      "outputs": [
        {
          "internalType": "uint256",
          "name": "",
          "type": "uint256"
        }
      ],
      "stateMutability": "view",
      "type": "function"
    }
  ],
  "bytecode": "0x60806040526007805460ff191690553480156200001b57600080fd5b50600080546001600160a01b031916339081179091556200003c90620000ac565b6200004733620000f0565b620000523362000134565b6200005d3362000178565b60016006819055600555600080546001600160a01b0319163390811782556040519091907f8be0079c531659141344cd1fd0a4f28419497f9722a3daafe3b4186f6b6457e0908290a362000306565b620000b9600182620001bc565b6040516001600160a01b038216907f28b26e7a3d20aedbc5f8f2ebf7da671c0491723a2b78f47a097b0e46dee0714290600090a250565b620000fd600282620001bc565b6040516001600160a01b038216907fddbf200aa634dc3fb81cfd68583dd1040d1c751d335e1d86b631bde3e977fea890600090a250565b62000141600382620001bc565b6040516001600160a01b038216907f2e0ded4123377a3c2bc9a26f1717655a129e2f20752924d42e730ec89c83dbd090600090a250565b62000185600482620001bc565b6040516001600160a01b038216907f71ae26cad02663e3d92efd6ec56031a80d74a20c0ab4183faa8bf262261c9baa90600090a250565b6001600160a01b038116620002125760405162461bcd60e51b8152602060048201526022602482015260008051602062003dc7833981519152604482015261737360f01b60648201526084015b60405180910390fd5b6200021e828262000292565b156200026d5760405162461bcd60e51b815260206004820152601860248201527f4163636f756e7420616c72656164792068617320726f6c650000000000000000604482015260640162000209565b6001600160a01b0316600090815260209190915260409020805460ff19166001179055565b60006001600160a01b038216620002e65760405162461bcd60e51b8152602060048201526022602482015260008051602062003dc7833981519152604482015261737360f01b606482015260840162000209565b506001600160a01b03166000908152602091909152604090205460ff1690565b613ab180620003166000396000f3fe60806040526004361061021a5760003560e01c806380c3f96d11610123578063ac2db09d116100ab578063db0e6a2f1161006f578063db0e6a2f146106cb578063e7fb74c7146106e0578063f2fde38b146106f3578063f30fc48014610713578063f61c899a1461073357600080fd5b8063ac2db09d146105d6578063b9429069146105ec578063b9c5c57e1461060c578063bfb231d214610639578063d38ea5bf146106b857600080fd5b80638ec4f505116100f25780638ec4f505146105345780638f0c86fa146105545780638f32d59b146105745780639f5ce91014610594578063a26be999146105c357600080fd5b806380c3f96d146104a757806380fc0ce4146104c7578063834ff739146104dc5780638da5cb5b146104fc57600080fd5b806349dae766116101a657806366225ff91161017557806366225ff9146103dc578063715018a6146104115780637250e2241461042657806376a5a8c91461044657806377c459131461047357600080fd5b806349dae766146103725780635da09b881461039257806361e6982d146103b2578063644241db146103c757600080fd5b80632d923561116101ed5780632d923561146102b05780633f683b6a146102d057806340be2b9d146102f45780634462f40c1461032157806346cdc8c01461034557600080fd5b80630daaf94b1461021f578063112940f9146102415780631385d24c146102615780631a41cc7a14610276575b600080fd5b34801561022b57600080fd5b5061023f61023a366004613218565b610753565b005b34801561024d57600080fd5b5061023f61025c36600461325a565b6109c2565b34801561026d57600080fd5b5061023f6109f8565b34801561028257600080fd5b50610296610291366004613283565b610a36565b6040516102a79594939291906132e2565b60405180910390f35b3480156102bc57600080fd5b5061023f6102cb36600461334c565b610c8f565b3480156102dc57600080fd5b5060075460ff165b60405190151581526020016102a7565b34801561030057600080fd5b5061031461030f36600461334c565b610ef6565b6040516102a7919061336e565b34801561032d57600080fd5b5061033760065481565b6040519081526020016102a7565b34801561035157600080fd5b50610365610360366004613283565b610faf565b6040516102a79190613381565b34801561037e57600080fd5b5061023f61038d366004613283565b611111565b34801561039e57600080fd5b506102e46103ad36600461325a565b611372565b3480156103be57600080fd5b5061023f611385565b3480156103d357600080fd5b5061023f611390565b3480156103e857600080fd5b506103fc6103f7366004613283565b611399565b6040516102a7999897969594939291906133f5565b34801561041d57600080fd5b5061023f611598565b34801561043257600080fd5b5061023f61044136600461325a565b61160c565b34801561045257600080fd5b50610466610461366004613283565b61163f565b6040516102a7919061345f565b34801561047f57600080fd5b5061049361048e366004613283565b61172b565b6040516102a79897969594939291906134c1565b3480156104b357600080fd5b5061023f6104c236600461325a565b611ace565b3480156104d357600080fd5b5061023f611b01565b3480156104e857600080fd5b506102e46104f736600461325a565b611b0a565b34801561050857600080fd5b5060005461051c906001600160a01b031681565b6040516001600160a01b0390911681526020016102a7565b34801561054057600080fd5b5061023f61054f36600461325a565b611b17565b34801561056057600080fd5b506102e461056f36600461325a565b611b4a565b34801561058057600080fd5b506000546001600160a01b031633146102e4565b3480156105a057600080fd5b506105b46105af366004613283565b611b57565b6040516102a793929190613546565b61023f6105d1366004613283565b611c02565b3480156105e257600080fd5b5061033760055481565b3480156105f857600080fd5b506102e461060736600461325a565b611e88565b34801561061857600080fd5b5061062c610627366004613283565b611e95565b6040516102a7919061356f565b34801561064557600080fd5b506106a5610654366004613283565b600860205260009081526040902080546001820154600283015460038401546004850154600590950154939492936001600160a01b0380841694600160a01b90940460ff1693928116928116911687565b6040516102a797969594939291906135ff565b61023f6106c6366004613283565b6121c4565b3480156106d757600080fd5b5061023f6124a4565b61023f6106ee366004613283565b6124ad565b3480156106ff57600080fd5b5061023f61070e36600461325a565b6128b5565b34801561071f57600080fd5b5061023f61072e366004613283565b61299f565b34801561073f57600080fd5b5061023f61074e366004613283565b612bf4565b61075c33611e88565b6107815760405162461bcd60e51b81526004016107789061364e565b60405180910390fd5b60075460ff16156107a45760405162461bcd60e51b81526004016107789061367e565b604080518082018252600981526812185c9d995cdd195960ba1b602080830191909152833560008181526008909252929020600201546001600160a01b03161561083c5760405162461bcd60e51b8152602060048201526024808201527f4974656d207769746820746869732055504320616c72656164792068617276656044820152631cdd195960e21b6064820152608401610778565b82356000818152600860209081526040808320600654815560018101949094556002840180546001600160a81b03191660ff60a01b193390811691909117909155600a8352922080546001600160a01b03191690921782556108a0908601866136ab565b60018301916108b0919083613794565b506108be60408601866136ab565b60028301916108ce919083613794565b506108dc60608601866136ab565b60038301916108ec919083613794565b506108fa60808601866136ab565b600483019161090a919083613794565b5084356000818152600b6020526040902060065490916109299161386a565b815561093860a08701876136ab565b6001830191610948919083613794565b5060006002820181905560068054916109608361387d565b90915550506040518635907f8e55ccfc9778ff8eba1646d765cf1982537ce0f9257054a17b48aad74525018390600090a25050506000828152600960209081526040822080546001810182559083529120016109bc8282613896565b50505050565b6000546001600160a01b031633146109ec5760405162461bcd60e51b815260040161077890613956565b6109f581612e76565b50565b6000546001600160a01b03163314610a225760405162461bcd60e51b815260040161077890613956565b6007805460ff19811660ff90911615179055565b600a60205260009081526040902080546001820180546001600160a01b039092169291610a629061370f565b80601f0160208091040260200160405190810160405280929190818152602001828054610a8e9061370f565b8015610adb5780601f10610ab057610100808354040283529160200191610adb565b820191906000526020600020905b815481529060010190602001808311610abe57829003601f168201915b505050505090806002018054610af09061370f565b80601f0160208091040260200160405190810160405280929190818152602001828054610b1c9061370f565b8015610b695780601f10610b3e57610100808354040283529160200191610b69565b820191906000526020600020905b815481529060010190602001808311610b4c57829003601f168201915b505050505090806003018054610b7e9061370f565b80601f0160208091040260200160405190810160405280929190818152602001828054610baa9061370f565b8015610bf75780601f10610bcc57610100808354040283529160200191610bf7565b820191906000526020600020905b815481529060010190602001808311610bda57829003601f168201915b505050505090806004018054610c0c9061370f565b80601f0160208091040260200160405190810160405280929190818152602001828054610c389061370f565b8015610c855780601f10610c5a57610100808354040283529160200191610c85565b820191906000526020600020905b815481529060010190602001808311610c6857829003601f168201915b5050505050905085565b610c9833611e88565b610cb45760405162461bcd60e51b81526004016107789061364e565b816002600082815260086020526040902060020154600160a01b900460ff166007811115610ce457610ce46133bd565b14610d235760405162461bcd60e51b815260206004820152600f60248201526e125d195b481b9bdd081c1858dad959608a1b6044820152606401610778565b60075460ff1615610d465760405162461bcd60e51b81526004016107789061367e565b604080518082019091526007815266466f7253616c6560c81b602082015283906002600086815260086020526040902060020154600160a01b900460ff166007811115610d9557610d956133bd565b14610ded5760405162461bcd60e51b815260206004820152602260248201527f4974656d206d757374206265207061636b6564206265666f72652073656c6c696044820152616e6760f01b6064820152608401610778565b6000858152600a60205260409020546001600160a01b03163314610e6b5760405162461bcd60e51b815260206004820152602f60248201527f4f6e6c7920746865206661726d65722077686f207061636b656420746865206960448201526e1d195b4818d85b881cd95b1b081a5d608a1b6064820152608401610778565b6000858152600b6020908152604080832060029081018890556008909252808320909101805460ff60a01b1916600360a01b1790555186917fa96ae0fc3224ebd79eebfe54bd130cc9cb94416cddd1f2386115e00b7253246891a2600082815260096020908152604082208054600181018255908352912001610eee8282613896565b505050505050565b60096020528160005260406000208181548110610f1257600080fd5b90600052602060002001600091509150508054610f2e9061370f565b80601f0160208091040260200160405190810160405280929190818152602001828054610f5a9061370f565b8015610fa75780601f10610f7c57610100808354040283529160200191610fa7565b820191906000526020600020905b815481529060010190602001808311610f8a57829003601f168201915b505050505081565b610fd360405180606001604052806000815260200160608152602001600081525090565b6000828152600b602052604081205490036110465760405162461bcd60e51b815260206004820152602d60248201527f50726f64756374206461746120646f6573206e6f7420657869737420666f722060448201526c74686520676976656e2055504360981b6064820152608401610778565b600b60008381526020019081526020016000206040518060600160405290816000820154815260200160018201805461107e9061370f565b80601f01602080910402602001604051908101604052809291908181526020018280546110aa9061370f565b80156110f75780601f106110cc576101008083540402835291602001916110f7565b820191906000526020600020905b8154815290600101906020018083116110da57829003601f168201915b505050505081526020016002820154815250509050919050565b61111a33611e88565b6111365760405162461bcd60e51b81526004016107789061364e565b8060008082815260086020526040902060020154600160a01b900460ff166007811115611165576111656133bd565b146111a75760405162461bcd60e51b8152602060048201526012602482015271125d195b481b9bdd081a185c9d995cdd195960721b6044820152606401610778565b60075460ff16156111ca5760405162461bcd60e51b81526004016107789061367e565b604080518082019091526009815268141c9bd8d95cdcd95960ba1b6020820152829060008085815260086020526040902060020154600160a01b900460ff16600781111561121a5761121a6133bd565b146112785760405162461bcd60e51b815260206004820152602860248201527f4974656d206d75737420626520686172766573746564206265666f72652070726044820152676f63657373696e6760c01b6064820152608401610778565b6000848152600a60205260409020546001600160a01b031633146112fa5760405162461bcd60e51b815260206004820152603360248201527f4f6e6c7920746865206661726d65722077686f206861727665737465642063616044820152726e2070726f636573732074686973206974656d60681b6064820152608401610778565b600084815260086020526040808220600201805460ff60a01b1916600160a01b1790555185917f5afe3b1bf87069693c075da5c22a98d63d1aef98a30dbbe538d0781a98b77ee591a260008281526009602090815260408220805460018101825590835291200161136b8282613896565b5050505050565b600061137f600483612eb8565b92915050565b61138e33612f00565b565b61138e33612f42565b600080600060606000806000806000600860008b8152602001908152602001600020600101546000036113de5760405162461bcd60e51b815260040161077890613997565b60008a8152600860209081526040808320815160e0810183528154815260018201549381019390935260028101546001600160a01b03811692840192909252906060830190600160a01b900460ff16600781111561143e5761143e6133bd565b600781111561144f5761144f6133bd565b815260038201546001600160a01b039081166020808401919091526004840154821660408085019190915260059094015490911660609283015260008f8152600b82528381208451938401909452835483526001840180549596509094929392918401916114bc9061370f565b80601f01602080910402602001604051908101604052809291908181526020018280546114e89061370f565b80156115355780601f1061150a57610100808354040283529160200191611535565b820191906000526020600020905b81548152906001019060200180831161151857829003601f168201915b50505050508152602001600282015481525050905081600001518260200151826000015183602001518460400151866060015187608001518860a001518960c001519a509a509a509a509a509a509a509a509a5050509193959799909294969850565b6000546001600160a01b031633146115c25760405162461bcd60e51b815260040161077890613956565b600080546040516001600160a01b03909116907f8be0079c531659141344cd1fd0a4f28419497f9722a3daafe3b4186f6b6457e0908390a3600080546001600160a01b0319169055565b6000546001600160a01b031633146116365760405162461bcd60e51b815260040161077890613956565b6109f581612f84565b606060096000838152602001908152602001600020805480602002602001604051908101604052809291908181526020016000905b828210156117205783829060005260206000200180546116939061370f565b80601f01602080910402602001604051908101604052809291908181526020018280546116bf9061370f565b801561170c5780601f106116e15761010080835404028352916020019161170c565b820191906000526020600020905b8154815290600101906020018083116116ef57829003601f168201915b505050505081526020019060010190611674565b505050509050919050565b600080600080606080606080600860008a81526020019081526020016000206001015460000361176d5760405162461bcd60e51b815260040161077890613997565b6000898152600860209081526040808320815160e0810183528154815260018201549381019390935260028101546001600160a01b03811692840192909252906060830190600160a01b900460ff1660078111156117cd576117cd6133bd565b60078111156117de576117de6133bd565b815260038201546001600160a01b0390811660208084019190915260048401548216604080850191909152600590940154821660609093019290925260008e8152600a8352838120845160a08101909552805490921684526001820180549596509094919284019161184f9061370f565b80601f016020809104026020016040519081016040528092919081815260200182805461187b9061370f565b80156118c85780601f1061189d576101008083540402835291602001916118c8565b820191906000526020600020905b8154815290600101906020018083116118ab57829003601f168201915b505050505081526020016002820180546118e19061370f565b80601f016020809104026020016040519081016040528092919081815260200182805461190d9061370f565b801561195a5780601f1061192f5761010080835404028352916020019161195a565b820191906000526020600020905b81548152906001019060200180831161193d57829003601f168201915b505050505081526020016003820180546119739061370f565b80601f016020809104026020016040519081016040528092919081815260200182805461199f9061370f565b80156119ec5780601f106119c1576101008083540402835291602001916119ec565b820191906000526020600020905b8154815290600101906020018083116119cf57829003601f168201915b50505050508152602001600482018054611a059061370f565b80601f0160208091040260200160405190810160405280929190818152602001828054611a319061370f565b8015611a7e5780601f10611a5357610100808354040283529160200191611a7e565b820191906000526020600020905b815481529060010190602001808311611a6157829003601f168201915b505050505081525050905081600001518260200151836040015183600001518460200151856040015186606001518760800151995099509950995099509950995099505050919395975091939597565b6000546001600160a01b03163314611af85760405162461bcd60e51b815260040161077890613956565b6109f581612fc6565b61138e33613008565b600061137f600183612eb8565b6000546001600160a01b03163314611b415760405162461bcd60e51b815260040161077890613956565b6109f58161304a565b600061137f600283612eb8565b600b6020526000908152604090208054600182018054919291611b799061370f565b80601f0160208091040260200160405190810160405280929190818152602001828054611ba59061370f565b8015611bf25780601f10611bc757610100808354040283529160200191611bf2565b820191906000526020600020905b815481529060010190602001808311611bd557829003601f168201915b5050505050908060020154905083565b611c0b33611372565b611c575760405162461bcd60e51b815260206004820152601860248201527f43616c6c6572206973206e6f7420612072657461696c657200000000000000006044820152606401610778565b806005600082815260086020526040902060020154600160a01b900460ff166007811115611c8757611c876133bd565b14611cc75760405162461bcd60e51b815260206004820152601060248201526f125d195b481b9bdd081cda1a5c1c195960821b6044820152606401610778565b60075460ff1615611cea5760405162461bcd60e51b81526004016107789061367e565b604080518082018252600880825267149958d95a5d995960c21b60208084019190915260008681529190529190912083919060056002820154600160a01b900460ff166007811115611d3e57611d3e6133bd565b14611d8b5760405162461bcd60e51b815260206004820152601f60248201527f4974656d206d75737420626520696e20275368697070656427207374617465006044820152606401610778565b6000858152600b6020526040902060020154341015611dbc5760405162461bcd60e51b8152600401610778906139dc565b600281018054600483018054336001600160a01b031990911681179091556001600160a81b031990911660ff60a01b1990911617600360a11b17905560405185907fa8142743f8f70a4c26f3691cf4ed59718381fb2f18070ec52be1f1022d85555790600090a260038101546040516001600160a01b03909116903480156108fc02916000818181858888f19350505050158015611e5e573d6000803e3d6000fd5b505060008281526009602090815260408220805460018101825590835291200161136b8282613896565b600061137f600383612eb8565b611ed06040518060a0016040528060006001600160a01b03168152602001606081526020016060815260200160608152602001606081525090565b6000828152600a60205260409020546001600160a01b0316611f495760405162461bcd60e51b815260206004820152602c60248201527f4f726967696e206461746120646f6573206e6f7420657869737420666f72207460448201526b686520676976656e2055504360a01b6064820152608401610778565b6000828152600a6020908152604091829020825160a0810190935280546001600160a01b031683526001810180549192840191611f859061370f565b80601f0160208091040260200160405190810160405280929190818152602001828054611fb19061370f565b8015611ffe5780601f10611fd357610100808354040283529160200191611ffe565b820191906000526020600020905b815481529060010190602001808311611fe157829003601f168201915b505050505081526020016002820180546120179061370f565b80601f01602080910402602001604051908101604052809291908181526020018280546120439061370f565b80156120905780601f1061206557610100808354040283529160200191612090565b820191906000526020600020905b81548152906001019060200180831161207357829003601f168201915b505050505081526020016003820180546120a99061370f565b80601f01602080910402602001604051908101604052809291908181526020018280546120d59061370f565b80156121225780601f106120f757610100808354040283529160200191612122565b820191906000526020600020905b81548152906001019060200180831161210557829003601f168201915b5050505050815260200160048201805461213b9061370f565b80601f01602080910402602001604051908101604052809291908181526020018280546121679061370f565b80156121b45780601f10612189576101008083540402835291602001916121b4565b820191906000526020600020905b81548152906001019060200180831161219757829003601f168201915b5050505050815250509050919050565b6121cd33611b0a565b6122195760405162461bcd60e51b815260206004820152601860248201527f43616c6c6572206973206e6f74206120636f6e73756d657200000000000000006044820152606401610778565b806006600082815260086020526040902060020154600160a01b900460ff166007811115612249576122496133bd565b1461228a5760405162461bcd60e51b8152602060048201526011602482015270125d195b481b9bdd081c9958d95a5d9959607a1b6044820152606401610778565b60075460ff16156122ad5760405162461bcd60e51b81526004016107789061367e565b6040805180820182526009815268141d5c98da185cd95960ba1b602080830191909152600085815260089091529190912083919060066002820154600160a01b900460ff166007811115612303576123036133bd565b146123505760405162461bcd60e51b815260206004820181905260248201527f4974656d206d75737420626520696e20275265636569766564272073746174656044820152606401610778565b6000858152600b60205260409020600201543410156123815760405162461bcd60e51b8152600401610778906139dc565b60028181018054600584018054336001600160a01b031990911681179091556001600160a81b031990911660ff60a01b1990911617600760a01b1790556000868152600b6020526040808220909201546004840154925190926001600160a01b03169183156108fc02918491818181858888f1935050505015801561240a573d6000803e3d6000fd5b5060006124178234613a26565b9050801561244e57604051339082156108fc029083906000818181858888f1935050505015801561244c573d6000803e3d6000fd5b505b60405187907f653d56639fee6b566a5c804764e9689de38645f0b733df89a36a1b7b42173dd890600090a250505060008281526009602090815260408220805460018101825590835291200161136b8282613896565b61138e3361308c565b6124b633611b4a565b6125025760405162461bcd60e51b815260206004820152601b60248201527f43616c6c6572206973206e6f742061206469737472696275746f7200000000006044820152606401610778565b806003600082815260086020526040902060020154600160a01b900460ff166007811115612532576125326133bd565b146125735760405162461bcd60e51b81526020600482015260116024820152704974656d206e6f7420666f722073616c6560781b6044820152606401610778565b6000828152600b6020526040902060020154348111156125d55760405162461bcd60e51b815260206004820152601960248201527f4e6f7420656e6f7567682065746865722070726f7669646564000000000000006044820152606401610778565b600754839060ff16156125fa5760405162461bcd60e51b81526004016107789061367e565b60408051808201909152600481526314dbdb1960e21b602082015284906003600087815260086020526040902060020154600160a01b900460ff166007811115612646576126466133bd565b146126935760405162461bcd60e51b815260206004820152601c60248201527f4974656d206d75737420626520666f722073616c6520746f20627579000000006044820152606401610778565b6000868152600b60205260409020600201543410156126fe5760405162461bcd60e51b815260206004820152602160248201527f496e73756666696369656e74207061796d656e7420666f7220746865206974656044820152606d60f81b6064820152608401610778565b6000868152600b602052604081206002015461271a9034613a26565b6000888152600860205260409020600281018054600383018054336001600160a01b031990911681179091556001600160a81b031990911660ff60a01b1990911617600160a21b179055909150811561279c57604051339083156108fc029084906000818181858888f1935050505015801561279a573d6000803e3d6000fd5b505b6000888152600a6020908152604080832054600b9092528083206002015490516001600160a01b039092169281156108fc029290818181858888f193505050501580156127ed573d6000803e3d6000fd5b5060405188907f92f64ca637d023f354075a4be751b169c1a8a9ccb6d33cdd0cb352054399572790600090a250506000828152600960209081526040822080546001810182559083529120016128438282613896565b5050506000818152600b6020526040812060020154906128638234613a26565b6000848152600860205260408082206005015490519293506001600160a01b03169183156108fc0291849190818181858888f193505050501580156128ac573d6000803e3d6000fd5b50505050505050565b6000546001600160a01b031633146128df5760405162461bcd60e51b815260040161077890613956565b6001600160a01b0381166129445760405162461bcd60e51b815260206004820152602660248201527f4f776e61626c653a206e6577206f776e657220697320746865207a65726f206160448201526564647265737360d01b6064820152608401610778565b600080546040516001600160a01b03808516939216917f8be0079c531659141344cd1fd0a4f28419497f9722a3daafe3b4186f6b6457e091a3600080546001600160a01b0319166001600160a01b0392909216919091179055565b6129a833611e88565b6129c45760405162461bcd60e51b81526004016107789061364e565b806001600082815260086020526040902060020154600160a01b900460ff1660078111156129f4576129f46133bd565b14612a365760405162461bcd60e51b8152602060048201526012602482015271125d195b481b9bdd081c1c9bd8d95cdcd95960721b6044820152606401610778565b60075460ff1615612a595760405162461bcd60e51b81526004016107789061367e565b604080518082019091526006815265141858dad95960d21b602082015282906001600085815260086020526040902060020154600160a01b900460ff166007811115612aa757612aa76133bd565b14612b025760405162461bcd60e51b815260206004820152602560248201527f4974656d206d7573742062652070726f636573736564206265666f7265207061604482015264636b696e6760d81b6064820152608401610778565b6000848152600a60205260409020546001600160a01b03163314612b835760405162461bcd60e51b815260206004820152603260248201527f4f6e6c7920746865206661726d65722077686f2070726f63657373656420746860448201527119481a5d195b4818d85b881c1858dac81a5d60721b6064820152608401610778565b600084815260086020526040808220600201805460ff60a01b1916600160a11b1790555185917f9b3b66e2380b690bae22c73ef1428fb0c91e72fe14a4b6defa13035214187aff91a260008281526009602090815260408220805460018101825590835291200161136b8282613896565b612bfd33611b4a565b612c495760405162461bcd60e51b815260206004820152601b60248201527f43616c6c6572206973206e6f742061206469737472696275746f7200000000006044820152606401610778565b806004600082815260086020526040902060020154600160a01b900460ff166007811115612c7957612c796133bd565b14612cb65760405162461bcd60e51b815260206004820152600d60248201526c125d195b481b9bdd081cdbdb19609a1b6044820152606401610778565b60075460ff1615612cd95760405162461bcd60e51b81526004016107789061367e565b60408051808201909152600781526614da1a5c1c195960ca1b602082015282906004600085815260086020526040902060020154600160a01b900460ff166007811115612d2857612d286133bd565b14612d7f5760405162461bcd60e51b815260206004820152602160248201527f4974656d206d75737420626520736f6c64206265666f7265207368697070696e6044820152606760f81b6064820152608401610778565b6000848152600860205260409020600301546001600160a01b03163314612e055760405162461bcd60e51b815260206004820152603460248201527f4f6e6c7920746865206469737472696275746f722077686f20626f75676874206044820152731d1a19481a5d195b4818d85b881cda1a5c081a5d60621b6064820152608401610778565b600084815260086020526040808220600201805460ff60a01b1916600560a01b1790555185917ff00b9a5725b80c54016f42114f6ed7792d22eecb116011c4afac29c57bef6c9591a260008281526009602090815260408220805460018101825590835291200161136b8282613896565b612e816001826130ce565b6040516001600160a01b038216907f28b26e7a3d20aedbc5f8f2ebf7da671c0491723a2b78f47a097b0e46dee0714290600090a250565b60006001600160a01b038216612ee05760405162461bcd60e51b815260040161077890613a39565b506001600160a01b03166000908152602091909152604090205460ff1690565b612f0b600182613170565b6040516001600160a01b038216907fe3f5ed5f263f1f01764a96edfc7d025f511ec5f7d180e8816908b78bcf74f09890600090a250565b612f4d600282613170565b6040516001600160a01b038216907f126174f6cf49c81cdb4a9214c6b8f037bef55b4ec31e4fc776cea2a1c8a88d5990600090a250565b612f8f6002826130ce565b6040516001600160a01b038216907fddbf200aa634dc3fb81cfd68583dd1040d1c751d335e1d86b631bde3e977fea890600090a250565b612fd16003826130ce565b6040516001600160a01b038216907f2e0ded4123377a3c2bc9a26f1717655a129e2f20752924d42e730ec89c83dbd090600090a250565b613013600382613170565b6040516001600160a01b038216907fa5e0f060af304ab17dd418c7927e3da3ae7868189bf387aee09ab179ccc572f290600090a250565b6130556004826130ce565b6040516001600160a01b038216907f71ae26cad02663e3d92efd6ec56031a80d74a20c0ab4183faa8bf262261c9baa90600090a250565b613097600482613170565b6040516001600160a01b038216907fdb7176e79cffef81cb01767dd0447a0b24bb72ca9778d4b245581086b2a7e6db90600090a250565b6001600160a01b0381166130f45760405162461bcd60e51b815260040161077890613a39565b6130fe8282612eb8565b1561314b5760405162461bcd60e51b815260206004820152601860248201527f4163636f756e7420616c72656164792068617320726f6c6500000000000000006044820152606401610778565b6001600160a01b0316600090815260209190915260409020805460ff19166001179055565b6001600160a01b0381166131965760405162461bcd60e51b815260040161077890613a39565b6131a08282612eb8565b6131f65760405162461bcd60e51b815260206004820152602160248201527f526f6c65733a206163636f756e7420646f6573206e6f74206861766520726f6c6044820152606560f81b6064820152608401610778565b6001600160a01b0316600090815260209190915260409020805460ff19169055565b60006020828403121561322a57600080fd5b813567ffffffffffffffff81111561324157600080fd5b820160c0818503121561325357600080fd5b9392505050565b60006020828403121561326c57600080fd5b81356001600160a01b038116811461325357600080fd5b60006020828403121561329557600080fd5b5035919050565b6000815180845260005b818110156132c2576020818501810151868301820152016132a6565b506000602082860101526020601f19601f83011685010191505092915050565b6001600160a01b038616815260a0602082018190526000906133069083018761329c565b8281036040840152613318818761329c565b9050828103606084015261332c818661329c565b90508281036080840152613340818561329c565b98975050505050505050565b6000806040838503121561335f57600080fd5b50508035926020909101359150565b602081526000613253602083018461329c565b602081528151602082015260006020830151606060408401526133a7608084018261329c565b9050604084015160608401528091505092915050565b634e487b7160e01b600052602160045260246000fd5b600881106133f157634e487b7160e01b600052602160045260246000fd5b9052565b60006101208b83528a602084015289604084015280606084015261341b8184018a61329c565b91505086608083015261343160a08301876133d3565b6001600160a01b0394851660c083015292841660e08201529216610100909201919091529695505050505050565b6000602080830181845280855180835260408601915060408160051b870101925083870160005b828110156134b457603f198886030184526134a285835161329c565b94509285019290850190600101613486565b5092979650505050505050565b888152602081018890526001600160a01b03878116604083015286166060820152610100608082018190526000906134fb8382018861329c565b905082810360a084015261350f818761329c565b905082810360c0840152613523818661329c565b905082810360e0840152613537818561329c565b9b9a5050505050505050505050565b83815260606020820152600061355f606083018561329c565b9050826040830152949350505050565b602080825282516001600160a01b03168282015282015160a0604083015260009061359d60c084018261329c565b90506040840151601f19808584030160608601526135bb838361329c565b925060608601519150808584030160808601526135d8838361329c565b925060808601519150808584030160a0860152506135f6828261329c565b95945050505050565b878152602081018790526001600160a01b03868116604083015260e082019061362b60608401886133d3565b948516608083015292841660a0820152921660c090920191909152949350505050565b60208082526016908201527521b0b63632b91034b9903737ba1030903330b936b2b960511b604082015260600190565b60208082526013908201527210dbdb9d1c9858dd081a5cc81cdd1bdc1c1959606a1b604082015260600190565b6000808335601e198436030181126136c257600080fd5b83018035915067ffffffffffffffff8211156136dd57600080fd5b6020019150368190038213156136f257600080fd5b9250929050565b634e487b7160e01b600052604160045260246000fd5b600181811c9082168061372357607f821691505b60208210810361374357634e487b7160e01b600052602260045260246000fd5b50919050565b601f82111561378f57600081815260208120601f850160051c810160208610156137705750805b601f850160051c820191505b81811015610eee5782815560010161377c565b505050565b67ffffffffffffffff8311156137ac576137ac6136f9565b6137c0836137ba835461370f565b83613749565b6000601f8411600181146137f457600085156137dc5750838201355b600019600387901b1c1916600186901b17835561136b565b600083815260209020601f19861690835b828110156138255786850135825560209485019460019092019101613805565b50868210156138425760001960f88860031b161c19848701351681555b505060018560011b0183555050505050565b634e487b7160e01b600052601160045260246000fd5b8082018082111561137f5761137f613854565b60006001820161388f5761388f613854565b5060010190565b815167ffffffffffffffff8111156138b0576138b06136f9565b6138c4816138be845461370f565b84613749565b602080601f8311600181146138f957600084156138e15750858301515b600019600386901b1c1916600185901b178555610eee565b600085815260208120601f198616915b8281101561392857888601518255948401946001909101908401613909565b50858210156139465787850151600019600388901b60f8161c191681555b5050505050600190811b01905550565b60208082526021908201527f4f6e6c79206f776e65722063616e2063616c6c20746869732066756e6374696f6040820152603760f91b606082015260800190565b60208082526025908201527f4974656d20646f6573206e6f7420657869737420666f722074686520676976656040820152646e2055504360d81b606082015260800190565b6020808252602a908201527f4e6f7420656e6f7567682065746865722070726f766964656420666f722074686040820152696520707572636861736560b01b606082015260800190565b8181038181111561137f5761137f613854565b60208082526022908201527f526f6c65733a206163636f756e7420697320746865207a65726f206164647265604082015261737360f01b60608201526080019056fea2646970667358221220ed94488884b754460892785274f3b11e6ee693fe23658dddee2e4fdd3d9124be64736f6c63430008140033526f6c65733a206163636f756e7420697320746865207a65726f206164647265",
  "linkReferences": {},
  "deployedLinkReferences": {}
}